:020000020000FC
:02000000FFC03F
:040004000C943A011D
:04000C000C943C0113
:1002000008E00EBF0FE50DBFF0E0E5E0AA245FEFC8
:100210005ABB5ABB03E30E945F010E94A00102E3A4
:100220000E945F010E94A00108E20E945F010E94FB
:10023000A0010EE00E945F0101E00E945F010E94A8
:10024000A00106E00E945F010CE00E945F01A59AF8
:1002500000E109BF00E60BBF02E005BF7894B0FEE5
:10026000FECF17D0A39401D0FACF11240A2C70D05E
:100270001CD00895B394189500241124222433240B
:1002800044249927AA24189505B310E2012708BB36
:10029000189540E254E66AEF000000006A95E1F725
:1002A0005A95C9F74A95B1F70895072D24D0082D1E
:1002B00022D0092D20D000E80E945F010895B02FC0
:1002C000B07FABB3AF70AB2BABBBD898D998DA9AF1
:1002D0000E949501DA980E949801B02FB295B07FE4
:1002E000ABB3AF70AB2BABBBDA9A0E949501DA9837
:1002F0000E9498010895B02FB07FABB3AF70AB2BC5
:10030000ABBBD89AD998DA9A0E949501DA98B02FA7
:10031000B295B07FABB3AF70AB2BABBBDA9A0E9498
:100320009501DA980E949801089500000000089550
:100330001F931CE30E9495011A95E1F71F91089500
:100340001F9314E10E9498011A95E1F71F910895F7
:1003500012D094E0292E9081992329F490E2919370
:100360002A94C9F790812394905D919390812A9467
:10037000D9F7359708951F920F9297E2392E90E1A1
:10038000292E14D093E0392E98EE292E0FD090E02C
:10039000392E94E6292E0AD090E0392E9AE0292EA3
:1003A00005D0008234970F901F9008959927131459
:1003B00038F011F4021420F0021813089395F7CFC7
:0403C0009193089578
:00000001FF
